:020000001528C1
:100008007E1480312100101E0A280B281328200096
:10001800101E0F28102813288231382280317E10B4
:10002800090016281B3084008230850020308600A5
:10003800003087000B308231492280317E10200049
:1000480025288131DF21803121000C118E15803166
:100058008B20803121302000AF007630890B322888
:10006800AF0B3228000020008E1D3B283C28372883
:1000780011302000AF003A30890B4028AF0B4028E0
:10008800000020008E1D49284A2837282A08AF007A
:100098002F08B00022008E1282312F228031F20107
:1000A800F20A30308131A121803170302000AF0058
:1000B8002F08F20007308131EF21803122008E169F
:1000C80005302000AF00DD30890B6828AF0B6828A9
:1000D800003222008E1220008E19732874286F288F
:1000E80004302000AF003D30890B7828AF0B78280A
:1000F80000328031F02080310A302000AF00BC305F
:10010800890B8428AF0B8428000037281528213054
:10011800F7007630890B8E28F70B8E2800322530B1
:100128008600003087007930840000308500053073
:10013800F70016001A00F70B9D2822008E120A30CD
:10014800F7007708F20000308131EF2180312A3042
:10015800F7007708F20004308131EF218031F20195
:10016800F20A01308131EF2180310230F70077083F
:10017800F20005308131EF2180310630F700770831
:10018800F20006308131EF2180310330F700770823
:10019800F20003308131EF2180317930F7007708A0
:1001A800F2000530F8007808F300103081317F2123
:1001B80080317930F7007708F2000530F8007808C8
:1001C800F3000A3081317F21803122008E16A6305B
:1001D800890BEC28003208002130F7007630890BB3
:1001E800F328F70BF3280032203086000030870010
:1001F80079308400003085000530F70016001A00B9
:10020800F70B022922008E120B30F7007708F20054
:1002180000308131EF218031F201F20A0130813161
:10022800EF2180310230F7007708F2000530813184
:10023800EF2180310630F7007708F200063081316F
:10024800EF2180310330F7007708F2000330813165
:10025800EF218031F201F20A11308131EF21803132
:100268007930F7007708F2000530F8007808F300D5
:100278000A3081317F2180317030F7007708F20031
:1002880007308131EF21803122008E1608002200CC
:100298008C018E01233021008C002A308E0023002F
:1002A8008E018C0124008C018E0125008C018E01A9
:1002B800373026008C003F308E003F3027008C00FE
:1002C8003F308E009312921691126930F00002307E
:1002D800F1008231552281312100101618303D007D
:1002E800A00010303C00A00019303D00A2001130E1
:1002F8003C00A1000800F50022000C1275081F3907
:10030800203882315B228131F601982976087207FC
:10031800F400740886008701010882315B2281316C
:100328000130F4007408F60773087602031C9D294F
:100338009E298A2922000C160800F40022000C12BB
:10034800A03082315B228131F501B8297508740724
:10035800F300730886008701010882315B2281312E
:100368000130F3007308F50772087502031CBD29F4
:10037800BE29AA2922000C16080010303C00A00053
:100388001130A10018303D00A0001930A200C03083
:10039800240094009501013092002100911500304D
:1003A800F0000030F10082314F22813121000E141B
:1003B8002400951608008231412281318131C12102
:1003C800813181314B218131823126228131823143
:1003D800652281310800F30022000C1273081F39CE
:1003E800203882315B228131720882315B2281316F
:1003F80022000C16080020002B082C040319052ADB
:10040800062A0B2A2C088A002B080A0082312700AA
:1004180093120800F0007008240091002000911D3C
:10042800162A172A122A91112400110808004134AB
:10043800413441344134413441344134413441340C
:10044800413455346230320099009B019D010330DC
:100458009F009E01080022000C12E13082315B22CD
:10046800823122000C1608002700931E3C2A3D2AE0
:10047800402A8131FF218231080032009101920126
:1004880093019401950196010800FE0012001E00D8
:10049800FE0B4A2A003471082000AE007008AD0037
:1004A800080071082000AC007008AB000800F100DB
:1004B800710882310E22823108000034C0340134C0
:0C04C800003416302100970008000800E6
:020000040001F9
:08000000FF3FFF3FFF3FFF3F00
:08000E00EC3FF33FFF3FFF3F11
:00000001FF
