:020000001528C1
:100008007E1480312100101E0A280B281328200096
:10001800101E0F28102813288131C32180317E102B
:1000280009001628B0308400813085002030860011
:10003800003087000A308131D42180317E102000C1
:100048004A292130F7007630890B2828F70B282811
:10005800003220308600003087007930840000307C
:1000680085000530F70016001A00F70B3728220024
:100078008E120B30F7007708F200003081318421AE
:100088008031F201F20A013081318421803102305D
:10009800F7007708F200053081318421803106307D
:1000A800F7007708F200063081318421803103306F
:1000B800F7007708F2000330813184218031F201A2
:1000C800F20A11308131842180317930F7007708C4
:1000D800F2000530F8007808F3000A3081310A216F
:1000E80080317030F7007708F200073081318421C1
:1000F800803122008E16080022008C018E012330E8
:1001080021008C002A308E0023008E018C012400EF
:100118008C018E0125008C018E01373026008C0061
:100128003F308E003F3027008C003F308E00931206
:1001380092169112F430F0000130F1008131E02183
:1001480080312100101618303D00A00010303C000E
:10015800A00019303D00A20011303C00A1000800A9
:100168000730813161218031F7007708F800781F66
:10017800BE28BF28DF28F201F20A79308031E0205A
:1001880080317030F7007708F20007308131842120
:10019800803144307906031DD228D328DF28220075
:1001A8000C152130F7007630890BD828F70BD828A2
:1001B800003222000C110800F50022000C126130F8
:1001C8008131E6218031F601FA28FF308131E621BC
:1001D8008031F30076087507F400740886008701FB
:1001E800730881000130F3007308F607720876027D
:1001F800031CFF280029E92822000C160C12E23003
:100208008131E621803122000C160800F500220019
:100218000C1275081F3920388131E6218131F60129
:10022800232976087207F4007408860087010108FC
:100238008131E62181310130F4007408F607730832
:100248007602031C28292929152922000C160800E2
:1002580010303C00A0001130A10018303D00A00073
:100268001930A200C030240094009501013092009A
:10027800210091150030F0000030F1008131DA21C1
:10028800813121000E142400951608008131742153
:10029800813121000C118E158031252081310A30E1
:1002A8002000AE00BC30890B5729AE0B572900003F
:1002B8008031B42081315C291528F30022000C120A
:1002C80073081F398131E6218131FF308131E62100
:1002D8008131F2007208F40022000C16740808003C
:1002E8008131CC21813181312C21813180318020B3
:1002F80081318131BA2181318131F0218131080088
:10030800F30022000C1273081F3920388131E621CE
:10031800813172088131E621813122000C160800F2
:1003280020002A082B0403199A299B29A0292B08A5
:100338008A002A080A008131270093120800F00079
:100348007008240091002000911DAB29AC29A72931
:1003580091112400110808004134413441344134DA
:100368004134413441344134413441346230320003
:1003780099009B019D0103309F009E010800270002
:10038800931EC729C829CB298131942181310800BE
:1003980032009101920193019401950196010800A0
:1003A800FE0012001E00FE0BD52900347108200043
:1003B800AD007008AC00080071082000AB007008A0
:1003C800AA000800F10071088131A32181310800D9
:1003D8000034C0340134003416302100970008007E
:0203E80008000B
:020000040001F9
:08000000FF3FFF3FFF3FFF3F00
:08000E00EC3FF33FFF3FFF3F11
:00000001FF
