:020000001528C1
:100008007E1480312100101E0A280B281328200096
:10001800101E0F28102813288131DF2180317E100F
:1000280009001628C33084008130850020308600FE
:10003800003087000A308131F0218031B5017E100F
:1000480020007C282130F7007630890B2928F70B0F
:100058002928003225308600003087007930840056
:10006800003085000530F70016001A00F70B382815
:1000780022008E120B30F7007708F2000030813131
:1000880097218031F201F20A0130813197218031C4
:100098000230F7007708F20005308131972180316E
:1000A8000630F7007708F200063081319721803159
:1000B8000330F7007708F20003308131972180314F
:1000C800F201F20A11308131972180317930F7003D
:1000D8007708F2000530F8007808F3000A3081311B
:1000E8003A2180318131D621803122008E160800D4
:1000F80081317121803121000C118E1521302000B1
:10010800B2007630890B8628B20B86280000803131
:100118002620803107308131842180312000B200CF
:100128003208B300331F99289A288E28F201F20A60
:1001380034308031ED2080318131D6218031553005
:1001480020003406031DA928AA288E2822000C1591
:1001580021302000B2007630890BB028B20BB028CD
:10016800000022000C118E28152822008C018E0117
:10017800233021008C000A308E0023008E018C0170
:1001880024008C018E0125008C018E013730260059
:100198008C003F308E003F3027008C003F308E00AF
:1001A8009312921691121C30F0000230F100813146
:1001B800F62180312100101618303D00A0001030C3
:1001C8003C00A00019303D00A20011303C00A10005
:1001D8000800F50022000C12613082310E228031B5
:1001E800F6010729FF3082310E228031F3007608AC
:1001F8007507F400740886008701730881000130D0
:10020800F3007308F60772087602031C0C290D29FF
:10021800F62822000C160C12E23082310E228031B0
:1002280022000C160800083023009F0080309D0033
:1002380024309E0040309B0003309C000030F000CA
:100248000030F1008231022281310030F0000030AC
:10025800F1008131FC2181310030F0000030F100E3
:100268008231082281312000B5010800F500220002
:100278000C1275081F39203882310E228131F6019F
:10028800532976087207F40074088600870101086C
:1002980082310E2281310130F4007408F6077308A8
:1002A8007602031C58295929452922000C160800F2
:1002B80010303C00A0001130A10018303D00A00013
:1002C8001930A200C030240094009501013092003A
:1002D80021000E142400951608008131E82181318F
:1002E80081315C2181318031B92081318131CD2149
:1002F8008131823118228131813117218131080001
:10030800F30022000C1273081F3982310E2281314A
:10031800FF3082310E228131F2007208F40022008F
:100328000C1674080800F30022000C1273081F3919
:10033800203882310E228131720882310E228131B9
:1003480022000C1608002000300831040319AD29DA
:10035800AE29B32931088A0030080A008131270004
:1003680093120800F0007008240091002000911DED
:10037800BE29BF29BA299111240011080800413467
:1003880041344134413441344134413441344134BD
:1003980041346230320099009B019D0103309F0077
:1003A8009E0108007030F4007408F20007308131B3
:1003B8009721813108002700931EE329E429E729C2
:1003C8008131A72181310800320091019201930106
:1003D8009401950196010800FE0012001E00FE0B14
:1003E800F129003471082000B1007008B00008003D
:1003F80071082000AD007008AC00080071082000EA
:10040800AF007008AE00080071082000AB0070084B
:10041800AA000800F10071088131B6218231080074
:100428000034C0340134003416302100970008002D
:020438000800BA
:020000040001F9
:08000000FF3FFF3FFF3FFF3F00
:08000E00EC3FF33FFF3FFF3F11
:00000001FF
