:020000001528C1
:100008007E1480312100101E0A280B281328200096
:10001800101E0F28102813288131C22180317E102C
:1000280009001628D3308400813085001200A00012
:100038001200A1001200A2001200A3001200A400E6
:100048001200A5007E1020008E282130F70076309F
:10005800890B2C28F70B2C28003220308600003022
:10006800870079308400003085000530F7001600DD
:100078001A00F70B3B2822008E120A30F700770887
:10008800F20000308131842180312A30F70077086E
:10009800F2000430813184218031F201F20A01300A
:1000A8008131842180310230F7007708F200053071
:1000B8008131842180310630F7007708F20006305C
:1000C8008131842180310330F7007708F200033052
:1000D8008131842180317930F7007708F2000530CA
:1000E800F8007808F300103081311421803179301C
:1000F800F7007708F2000530F8007808F3000A30B6
:1001080081311421803122008E16A630890B8A286D
:100118000032080081317421803121000C118E11C8
:1001280021302000AA007630890B9828AA0B98283D
:10013800000080312920803120008E1DA428A528A8
:10014800A02811302000AA003A30890BA928AA0B50
:10015800A928000020008E1DB228B328A028250851
:10016800AA002A08AB0022008E128131B921803101
:10017800F201F20A2B3081313621803170302000B3
:10018800AA002A08F2000730813184218031220038
:100198008E1605302000AA00DD30890BD128AA0B65
:1001A800D128003222008E1220008E19DC28DD288A
:1001B800D828A028152822008C018E012330210080
:1001C8008C002A308E0023008E018C012030240000
:1001D8008C008E0125008C018E01373026008C00A2
:1001E8003F308E003F3027008C003F308E00931246
:1001F80092169112F330F0000130F1008131DF21C5
:1002080080312100101618303D00A00010303C004D
:10021800A00019303D00A20011303C00A1000800E8
:10022800F50022000C1275081F3920388131E521AC
:100238008131F6012D2976087207F40074088600CA
:10024800870101088131E52181310130F40074080A
:10025800F60773087602031C322933291F29220066
:100268000C160800F40022000C12A0308131E521A0
:100278008131F5014D2975087407F300730886006C
:10028800870101088131E52181310130F3007308CC
:10029800F50772087502031C522953293F292200C9
:1002A8000C16080010303C00A0001130A1001830D6
:1002B8003D00A0001930A200C03024009400950130
:1002C80001309200210091150030F0000030F1005B
:1002D8008131D921813121000E142400951608009E
:1002E8008131CB2181318131562181318031DF202B
:1002F80081318131B02181318131EF218131080093
:10030800F30022000C1273081F3920388131E521CF
:10031800813172088131E521813122000C160800F3
:1003280020002608270403199A299B29A0292708B1
:100338008A0026080A008131270093120800F0007D
:100348007008240091002000911DAB29AC29A72931
:1003580091112400110808006230320099009B01B5
:100368009D0103309F009E01080022000C12E1301D
:100378008131E521813122000C1608002700931EE7
:10038800C629C729CA298131942181310800320040
:10039800910192019301940195019601080041345D
:1003A8004134413441344134553471082000A900A6
:1003B8007008A800080071082000A7007008A600AF
:1003C8000800F10071088131A3218131080000344F
:1003D800C0340134003416302100970008000800AA
:020000040001F9
:08000000FF3FFF3FFF3FFF3F00
:08000E00EC3FF33FFF3FFF3F11
:00000001FF
