:020000001528C1
:100008007E1480312100101E0A280B281328200096
:10001800101E0F28102813288131EF2180317E10FF
:1000280009001628D23084008130850020308600EF
:10003800003087000B30823100228031B5017E10FC
:1000480020008B282130F7007630890B2928F70B00
:10005800292800322030860000308700793084005B
:10006800003085000530F70016001A00F70B382815
:1000780022008E120A30F7007708F2000030813132
:10008800A62180312A30F7007708F2000430813148
:10009800A6218031F201F20A01308131A621803196
:1000A8000230F7007708F20005308131A62180314F
:1000B8000630F7007708F20006308131A62180313A
:1000C8000330F7007708F20003308131A621803130
:1000D8007930F7007708F2000530F8007808F30067
:1000E800103081313C2180317930F7007708F200F7
:1000F8000530F8007808F3000A3081313C2180315E
:1001080022008E16A630890B87280032080081311C
:100118009321803121000C118E15803126208031E9
:1001280021302000B3007630890B9828B30B98282B
:10013800000020008E1DA128A2289D281130200033
:10014800B3003A30890BA628B30BA628000020007C
:100158008E1DAF28B0289D282A08B3003308B400A4
:1001680022008E128131E6218031F201F20A343008
:1001780081315E21803170302000B3003308F200F5
:1001880007308131A621803122008E1605302000EB
:10019800B300DD30890BCE28B30BCE280032220005
:1001A8008E1220008E19D928DA28D528043020008C
:1001B800B3003D30890BDE28B30BDE2800329D28C2
:1001C800152822008C018E01233021008C000A3072
:1001D8008E0023008E018C0124008C018E012500E5
:1001E8008C018E01373026008C003F308E003F3066
:1001F80027008C003F308E009312921691122C30FB
:10020800F0000230F1008231062280312100101600
:1002180018303D00A00010303C00A00019303D000F
:10022800A20011303C00A1000800083023009F0004
:1002380080309D0024309E0040309B0003309C009D
:100248000030F0000030F10082311222813100309C
:10025800F0000030F10082310C2281310030F000D2
:100268000030F1008231182281312000B5010800E8
:10027800F50022000C1275081F39203882311E2221
:100288008131F601552976087207F4007408860052
:100298008701010882311E2281310130F40074087F
:1002A800F60773087602031C5A295B29472922009E
:1002B8000C160800F40022000C12A03082311E2215
:1002C8008131F501752975087407F30073088600F4
:1002D8008701010882311E2281310130F300730841
:1002E800F50772087502031C7A297B296729220001
:1002F8000C16080010303C00A0001130A100183086
:100308003D00A0001930A200C030240094009501DF
:100318000130920021000E14240095160800813146
:10032800F821813181317E2181318031E52081318F
:100338008131DD21813182312822813181311921B8
:1003480081310800F30022000C1273081F3920388D
:1003580082311E228131720882311E2281312200AF
:100368000C1608002000310832040319BC29BD29E5
:10037800C22932088A0031080A0081312700931205
:100388000800F0007008240091002000911DCD297C
:10039800CE29C9299111240011080800413441349B
:1003A800413441344134413441344134413441349D
:1003B80044346230320099009B019D0103309F0054
:1003C8009E01080022000C12E13082311E22813188
:1003D80022000C1608002700931EF329F429F72998
:1003E8008131B621813108003200910192019301D7
:1003F8009401950196010800FE0012001E00FE0BF4
:10040800012A003471082000B2007008B100080009
:1004180071082000AE007008AD00080071082000C7
:10042800B0007008AF00080071082000AC00700828
:10043800AB000800F10071088131C5218231080044
:100448000034C0340134003416302100970008000D
:0204580008009A
:020000040001F9
:08000000FF3FFF3FFF3FFF3F00
:08000E00EC3FF33FFF3FFF3F11
:00000001FF
