:020000001528C1
:100008007E1480312100101E0A280B281328200096
:10001800101E0F28102813288131CE2180317E1020
:1000280009001628FD308400813085001200A800E0
:100038001200A9001200AA001200AB001200AC00C6
:10004800B0017E102000B3282130F7007630890BEC
:100058002B28F70B2B280032283086000030870029
:1000680079308400003085000530F70016001A004A
:10007800F70B3A2822008E120B30F7007708F200AF
:100088000030813190218031F201F20A0130813152
:10009800902180310230F7007708F2000530813175
:1000A800902180310630F7007708F2000630813160
:1000B800902180310330F7007708F2000330813156
:1000C80090218031F201F20A113081319021803182
:1000D8007930F7007708F2000530F8007808F30067
:1000E8000A308131332180318131C52180312200AC
:1000F8008E16080022008C018E01233021008C000E
:100108000A308E0023008E018C01203024008C00E0
:100118008E0125008C018E01373026008C003F307F
:100128008E003F3027008C003F308E0093129216CD
:1001380091120A30F0000230F1008131DF21803164
:100148002100101618303D00A00010303C00A0001F
:1001580019303D00A20011303C00A1000800813197
:100168006A21803121000C1180312820803107302C
:1001780081317D2180312000AD002D08AE002E1F79
:10018800C628C728BB28F201F20A2F308031E620A2
:1001980080318131C5218031553020002F06031D63
:1001A800D628D728BB2822000C1521302000AD0006
:1001B8007630890BDD28AD0BDD28000022000C11FC
:1001C800BB281528F50022000C1261308131F72177
:1001D8008031F6010029FF308131F7218031F300A9
:1001E80076087507F4007408860087017308810093
:1001F8000130F3007308F60772087602031C05291C
:100208000629EF2822000C160C12E2308131F72162
:10021800803122000C160800083023009F0080302F
:100228009D0024309E0040309B0003309C0000302D
:10023800F0000030F1008131EB2181310030F00015
:100248000030F1008131E52181310030F0000030CB
:10025800F1008131F12181312000B0010800F50061
:1002680022000C1275081F3920388131F72181319D
:10027800F6014C2976087207F40074088600870195
:1002880001088131F72181310130F4007408F60743
:1002980073087602031C512952293E2922000C16A4
:1002A800080010303C00A0001130A10018303D00BB
:1002B800A0001930A200C03024009400950101303C
:1002C800920021000E142400951608008131D721D0
:1002D800813181315521813180317E2081318131D7
:1002E800BC21813182310622813181311021813155
:1002F8000800F30022000C1273081F398131F7211E
:100308008131FF308131F7218131F2007208F40028
:1003180022000C1674080800F30022000C1273085F
:100328001F3920388131F721813172088131F72155
:10033800813122000C160800200026082704031922
:10034800A629A729AC2927088A0026080A0081318E
:10035800270093120800F000700824009100200084
:10036800911DB729B829B329911124001108080053
:100378006230320099009B019D0103309F009E016D
:1003880008007030F4007408F200073081319021C1
:10039800813108002700931ED229D329D62981311B
:1003A800A02181310800320091019201930194014A
:1003B80095019601080071082000A7007008A600A2
:1003C800080071082000A3007008A2000800710846
:1003D8002000A5007008A400080071082000A100F2
:1003E8007008A0000800F10071088131AF21813147
:1003F8000800413441344134413441340034C0347C
:0E04080001340034163021009700080008006F
:020000040001F9
:08000000FF3FFF3FFF3FFF3F00
:08000E00EC3FF33FFF3FFF3F11
:00000001FF
